:020000040800F2
:100000007005002045010008CF010008D10100085B
:10001000D5010008D9010008DD010008000000003A
:10002000000000000000000000000000E1010008E6
:10003000E301000800000000E5010008E7010008F6
:100040005F0100085F0100085F0100085F01000810
:100050005F0100085F0100085F0100085F01000800
:100060005F0100085F0100085F0100085F010008F0
:100070005F0100085F0100085F0100085F010008E0
:100080005F0100085F0100085F0100085F010008D0
:100090005F0100085F0100085F0100085F010008C0
:1000A0005F0100085F0100085F0100085F010008B0
:1000B0005F010008890100085F0100085F01000876
:1000C0005F0100085F0100085F0100085F01000890
:1000D0005F0100085F0100085F0100085F01000880
:1000E0005F0100085F0100085F0100085F01000870
:1000F0005F0100085F0100085F0100085F01000860
:100100005F0100085F0100085F0100085F0100084F
:100110005F0100085F0100085F0100085F0100083F
:100120005F0100085F0100085F0100085F0100082F
:10013000DFF80CD003F04CF80048004769010008D4
:10014000700500200648804706480047FEE7FEE7A6
:10015000FEE7FEE7FEE7FEE7FEE7FEE7FEE7FEE777
:10016000D91000083101000800F0B6FF02F0B3FC1E
:1001700002F0BFFC05E0034802F044F81E2001F045
:10018000D5FCF8E79C00002010B51748008810F057
:10019000010F1BD04FF6FE701349088013480088EA
:1001A000401C1249088001F00CFA02F0CDF802F070
:1001B00042FC0E4800880A2808D100200B4908801C
:1001C00004210B4800F025F901F044FB10BD7047F5
:1001D00000BFFEE700BFFEE700BFFEE700BFFEE78F
:1001E00070477047704770471004004000000020BF
:1001F000000C014010B50446CC48844208D10121CE
:10020000042000F029FB0021042000F025FB46E03B
:10021000C748844208D10121082000F01DFB0021BD
:10022000082000F019FB3AE0C248844208D10121BD
:10023000102000F011FB0021102000F00DFB2EE03B
:10024000BD48844208D10121202000F005FB002197
:10025000202000F001FB22E0B848844208D10121AF
:10026000402000F0F9FA0021402000F0F5FA16E0F5
:10027000B348844208D10121802000F0EDFA00212A
:10028000802000F0E9FA0AE0AE48844207D101215B
:10029000801500F0E1FA0021A01500F0DDFA10BD94
:1002A00010B50121084600F0D7FA0021012000F026
:1002B000D3FA10BD2DE9F0410246002500260020AA
:1002C00000230024002791F803C00CF00F0591F8DB
:1002D00003C01CF0100F03D091F802C04CEA0505D2
:1002E000B1F800C01CF0FF0F31D0146800202BE0E3
:1002F0004FF0010C0CFA00F3B1F800C00CEA030651
:100300009E4220D183004FF00F0C0CFA03F7BC4340
:1003100005FA03FC4CEA040491F803C0BCF1280F71
:1003200006D14FF0010C0CFA00FCC2F814C00AE030
:1003300091F803C0BCF1480F05D14FF0010C0CFA45
:1003400000FCC2F810C0401C0828D1D31460B1F8DA
:1003500000C0BCF1FF0F34DD546800202EE000F136
:10036000080C4FF0010808FA0CF3B1F800C00CEAD1
:1003700003069E4221D183004FF00F0C0CFA03F7C5
:10038000BC4305FA03FC4CEA040491F803C0BCF139
:10039000280F05D100F1080C08FA0CF8C2F81480F7
:1003A00091F803C0BCF1480F07D100F1080C4FF0E1
:1003B000010808FA0CF8C2F81080401C0828CED3B7
:1003C0005460BDE8F0814FF6FF7101800221817019
:1003D0000421C17070470246002093680B4201D08F
:1003E000012000E0002070470146886880B2704715
:1003F00002460020D3680B4201D0012000E000201B
:1004000070470146C86880B270470161704741611A
:100410007047C2684A40C26070470AB1016100E09B
:1004200041617047C16070474FF480320A43826176
:100430008161826182698269704702460020424B75
:1004400018684FF68073184040EA021008433E4B8C
:10045000186070473D49C8617047F0B50A460023EF
:1004600000240021002500F00046B6F1004F02D123
:10047000354EF16901E0344E7168C0F3034583B233
:1004800000F44016B6F5401F08D121F070612E4EE1
:10049000766826F070662C4F7E6012E000F48016BD
:1004A000B6F5801F06D1032606FA05F4A14341F0F4
:1004B000706106E0460D360103FA06F6B14341F0DD
:1004C000706122B1460D360103FA06F6314300F0A1
:1004D0000046B6F1004F02D11B4EF16101E01A4E09
:1004E0007160F0BD30B500228B071C0F0F2303FA9B
:1004F00004F2154B08338C1053F824309343124CFC
:1005000008348D1044F8253023468C1053F82430DD
:100510008C07240F00FA04F423430B4C08348D108D
:1005200044F8253030BD0A49086070470008014092
:10053000000C01400010014000140140001801406F
:10054000001C01400020014000000140000020424A
:10055000DC002042DC48006840F00100DA49086015
:1005600008464068D9490840D749486008460068AD
:10057000D7490840D44908600846006820F4802024
:1005800008600846406820F4FE0048604FF41F00F1
:1005900088607047CC49096821F48031CA4A1160EB
:1005A0001146096821F480211160B0F5803F03D025
:1005B000B0F5802F0ED106E0C349096841F48031BF
:1005C000C14A116007E0C049096841F4A021BE4A50
:1005D000116000E000BF00BF704710B50146002267
:1005E000002300204A11012A02D1B74C236806E0FB
:1005F000022A02D1B44C236A01E0B34C636A01F0D1
:100600001F02012494401C4201D0012000E0002080
:1006100010BD70B500240025002600BF3120FFF773
:10062000DCFF0646641CB4F5A06F01D0002EF5D0A7
:100630003120FFF7D2FF08B1012500E00025284650
:1006400070BD01460020A04A106820F0F80040EA82
:10065000C100106070479F49086070470246002043
:10066000994B586820F47C1042EA01031843964BDA
:100670005860704797490866704701460020924AC3
:10068000506820F003000843506070478E4840686F
:1006900000F00C007047014600208B4A506820F0A3
:1006A000F00008435060704701460020864A5068B9
:1006B00020F4E06008435060704701460020824A01
:1006C000506820F4605040EAC1005060704729B182
:1006D0007D4A527A02437C4B5A7206E07A4A527A39
:1006E000C343DBB21A40784B5A7270477A490860AC
:1006F000704701460020744A506820F44040084387
:10070000506070470021754A11706F4A82F82010BE
:10071000012802D0042808D103E001216F4A11709A
:1007200004E005216D4A117000E000BF00BF704772
:100730006B49086070476449096A0143624A116263
:100740007047674944390860704730B5002100227E
:10075000002400235C4D6D6805F00C0121B10429D3
:1007600005D0082923D105E05E4D056022E05D4DEE
:1007700005601FE0544D6D6805F47012524D6D68B0
:1007800005F48034022505EB92421CB9564D5543C1
:1007900005600BE04C4D6D6815F4003F03D0524DE1
:1007A0005543056002E04F4D5543056002E04D4D55
:1007B000056000BF00BF444D6D6805F0F0010909F8
:1007C0004A4D6B5C0568DD4045603F4D6D6805F442
:1007D000E061090A454D6B5C4568DD4085603A4D36
:1007E0006D6805F46051C90A404D6B5C4568DD4099
:1007F000C560354D6D6805F44041890B3C4D6B5C1F
:10080000C568B5FBF3F5056130BD29B12E4A5269C3
:1008100002432D4B5A6104E02B4A526982432A4B12
:100820005A61704729B1284A92690243264B9A615E
:1008300004E0254A92698243234B9A61704729B1AB
:10084000214AD2690243204BDA6104E01E4AD26990
:1008500082431D4BDA61704729B11B4AD2680243BB
:10086000194BDA6004E0184AD2688243164BDA600A
:10087000704729B1144A12690243134B1A6104E00C
:10088000114A12698243104B1A617047144940396A
:10089000086070470F49C86470470B49C8717047BA
:1008A0000948406A40F08070074948627047014635
:1008B0000020054A92680A4201D0012000E0002091
:1008C0007047014988727047001002400000FFF82D
:1008D000FFFFF6FE00004242D800424220100240D4
:1008E000800442420024F40000127A00020000203A
:1008F0001200002010B50446BF48844208D10121EF
:100900008014FFF7A9FF0021A014FFF7A5FF16E050
:10091000BA48844208D101210014FFF7AAFF002140
:100920002014FFF7A6FF0AE0B548844207D1012151
:10093000C013FFF79EFF0021E013FFF79AFF10BDE1
:1009400010B50022028802F441520B884C882343E0
:100950008C882343CC8823430C8923434C8923432D
:100960008C892343CC8923431A430280838B4FF223
:10097000FF74234083830B8A038210BD2DE9F04F5F
:1009800085B005460C464FF0000902274FF00008DD
:100990004FF0010B0026B246A88B4FF240010840F1
:1009A000A88302202884B5F81C90A068022801D1F1
:1009B00000BF36E0A08810B94FF0010B01E04FF006
:1009C000020B8E48854200D100E000BF6846FFF769
:1009D000BCFEDDF800A0E088B0F5007F0AD14FEA48
:1009E0001A2000EB80004000A168B0FBF1F0401D30
:1009F00086B20BE04FEA4B10BAFBF0F000EB800040
:100A00004000A168B0FBF1F0401D86B20A20B6FBA1
:100A1000F0F606F00108A6EB0800C0F34F074FEA16
:100A20000828022F01DBFF2F02DD02274FF000080C
:100A3000E08840EA080038432884A088A189084358
:100A4000618808432188084340F4006040EA0909AE
:100A5000A5F81C9005B0BDE8F08F00210180418011
:100A60008180C180018141818181C1810721018211
:100A700070470021018041808180C1800221816016
:100A800000218181704721B1028842F0400202803A
:100A900004E002884FF6BF731A400280704721B10C
:100AA000828B42F48062828304E0828B4FF6FF33B4
:100AB0001A408283704770B5002400230C11012571
:100AC000A540ABB21AB185881D43858004E08588B6
:100AD000DE43B6B23540858070BD10B51AB183884B
:100AE0000B43838004E08388CC43A4B223408380FB
:100AF00010BD81817047014688897047A1F57E420B
:100B0000FF3A04D0028842F48072028004E0028836
:100B10004FF6FF631A400280704721B1828842F08D
:100B20000402828004E082884FF6FB731A408280C0
:100B3000704702884FF2FF731A40028002880A430E
:100B400002807047018841F480510180704721B1D3
:100B5000028842F40052028004E002884DF6FF73DE
:100B60001A400280704702460020012901D0108BF4
:100B700000E0908A70470146088A7047B1F5804FBF
:100B800004D1028842F48042028004E002884BF6DD
:100B9000FF731A40028070470246002013890B42FF
:100BA00001D0012000E000207047CA430281704755
:100BB000F0B50246002000240023002501F00F07B5
:100BC0000126BE40B4B20B1101269E40B3B29688F6
:100BD00006EA03051689264202D00DB1012000E085
:100BE0000020F0BD10B5002201F00F040123A34046
:100BF0009AB2D343038110BD003001400038004059
:100C0000003C004010B50446FC48844209D1012153
:100C10008803FFF721FE00214FF48040FFF71CFE00
:100C200032E0F748844209D101214804FFF721FE50
:100C300000214FF40030FFF71CFE25E0F14884420C
:100C400009D101218804FFF714FE00214FF4802010
:100C5000FFF70FFE18E0EC48844209D10121C804D7
:100C6000FFF707FE00214FF40020FFF702FE0BE024
:100C7000E648844208D101210805FFF7FAFD00216A
:100C80004FF48010FFF7F5FD10BD2DE9F04786B059
:100C900005460E460024A24600BFA1460027B089A3
:100CA00000B100BF2F462C8A4CF6FF700440F0883C
:100CB00004432C82AC894EF6F3100440B08831898D
:100CC0000843718908430443AC81AC8A4FF6FF4066
:100CD0000440B0890443AC8201A8FFF736FDC74841
:100CE000874202D1DDF810A001E0DDF80CA0A88950
:100CF00010F4004F08D00AEBCA0000EB0A1031686C
:100D00004900B0FBF1F807E00AEBCA0000EB0A105B
:100D100031688900B0FBF1F86420B8FBF0F0040101
:100D20002009642101FB1089A88910F4004F08D024
:100D3000322000EBC900B0FBF1F000F007000443E3
:100D400008E0322000EB09106421B0FBF1F000F064
:100D50000F0004432C8106B0BDE8F0874FF4165114
:100D6000016000218180C18001810C21418100212D
:100D70008181704710B502460020108A4FF2FF03B0
:100D800018400B884C8823438C882343CC8823430A
:100D90001843108210BD0021018041808180C180F4
:100DA000704721B1828942F40052828104E0828935
:100DB0004DF6FF731A4082817047F0B50346002458
:100DC000002600250020A1F510676A3F00D100BF72
:100DD0001846C1F3421401F01F06012707FA06F571
:100DE000012C01D10C3004E0022C01D1103000E0C4
:100DF00014301AB107682F43076002E00768AF4359
:100E00000760F0BD10B51AB1838A0B43838204E0FA
:100E1000838ACC43A4B22340838210BD028A4FF65A
:100E2000F0731A400282028A0A4302827047828962
:100E30004FF2FF731A40828182890A438281704790
:100E400021B1828942F00202828104E082894FF658
:100E5000FD731A4082817047028A4FF6DF731A4091
:100E60000282028A0A430282704721B1028A42F456
:100E70008042028204E0028A4BF6FF731A4002822B
:100E80007047C1F308028280704701468888C0F32A
:100E900008007047818941F0010181817047028B10
:100EA000D2B20283028B42EA012202837047028B94
:100EB00002F47F420283028B0A430283704721B10E
:100EC000828A42F02002828204E0828A4FF6DF7337
:100ED0001A408282704721B1828A42F010028282D7
:100EE00004E0828A4FF6EF731A408282704721B184
:100EF000828A42F00802828204E0828A4FF6F77307
:100F00001A408282704721B1828942F40042828174
:100F100003E08289C2F30E028281704721B1828A86
:100F200042F40062828204E0828A4FF2FF731A4028
:100F300082827047828A4FF6FB731A408282828ACD
:100F40000A438282704721B1828A42F00202828281
:100F500004E0828A4FF6FD731A408282704702468F
:100F60000020B1F5007F00D100BF13880B4201D0F3
:100F7000012000E00020704701F40072B2F5007F0C
:100F800000D100BFCA430280704770B502460024FA
:100F9000002300250020A1F510666A3E00D100BFA5
:100FA000C1F3421501F01F03012606FA03F3012DD8
:100FB00002D19689334006E0022D02D1168A3340D1
:100FC00001E0968A33400C12012606FA04F41688D2
:100FD000344013B10CB1012000E0002070BD10B509
:100FE00000220023A1F510646A3C00D100BF0A1260
:100FF00001249440A3B2DC43048010BD00380140BA
:101000000044004000480040004C004000500040B8
:1010100000210020674A126842F48032654B1A6052
:1010200000BF644A126802F40030491C10B9B1F5DF
:10103000A06FF6D15F4A126812F4003F01D0012080
:1010400000E00020012842D15B4A126842F0100201
:10105000594B1A601A46126822F003021A601A46A7
:10106000126842F002021A60524A5268514B5A60AA
:101070001A4652685A601A46526842F480625A60B0
:101080001A46526822F47C125A601A46526842F498
:10109000F8125A601A46126842F080721A6000BF55
:1010A000444A126812F0007FFAD0424A526822F095
:1010B0000302404B5A601A46526842F002025A60DC
:1010C00000BF3C4A526802F00C02082AF9D170476E
:1010D00010B5FFF79DFF10BD10B53648006840F011
:1010E00001003449086008464068344908403149E5
:1010F000486008460068324908402E4908600846A2
:10110000006820F4802008600846406820F4FE0053
:1011100048604FF41F008860FFF7DAFF4FF000606F
:101120002849086010BD10B5002100200022214B85
:101130005B6803F00C0121B1042906D0082928D1ED
:1011400007E0214B214C236027E01F4B1F4C2360FD
:1011500023E0184B5B6803F47010164B5B6803F4D4
:101160008032022303EB904022B9194B4343174CC2
:1011700023600DE00F4B5B6813F4003F04D0144B69
:101180004343124C236003E00F4B43430F4C236057
:1011900003E00D4B0D4C236000BF00BF054B5B68A7
:1011A000C3F303130B4CE15C084B1B68CB40074CAB
:1011B000236010BD00100240002002400000FFF834
:1011C000FFFFF6FE08ED00E00024F4001800002008
:1011D00000127A001C00002008B501210820FFF74A
:1011E00021FB4020ADF8000003208DF80200142000
:1011F0008DF803006946BA48FFF75CF88020ADF827
:10120000000003208DF8020014208DF803006946C9
:10121000B348FFF74FF808BD00BF704741F2883070
:1012200000E0401E0028FCD1704700B58020AC498A
:101230001031086040200860FFF7EEFFA848083032
:10124000006808B9012000E0002010F0800F01D0F4
:10125000002000BD8020A24914310860FFF7DCFFA8
:101260009F480830006810F0800F01D00020F0E7A0
:1012700080209B4914310860FFF7CEFF0120E8E78A
:1012800000B54020964914310860FFF7C5FF802063
:10129000934914310860FFF7BFFF40209049103197
:1012A0000860FFF7B9FF80208D4910310860FFF713
:1012B000B3FF00BD00B54020894914310860FFF735
:1012C000ABFF8020864914310860FFF7A5FF40205E
:1012D000834910310860FFF79FFF40208049143197
:1012E0000860FFF799FF00BD00B540207C4914312C
:1012F0000860FFF791FF8020794910310860FFF7FF
:101300008BFF4020764910310860FFF785FF4020B1
:10131000734914310860FFF77FFF00BD00B540201E
:101320006F4914310860FFF777FF80206C49103156
:101330000860FFF771FF4020694910310860FFF72E
:101340006BFF67480830006810F0800F07D040201E
:10135000634914310860FFF75FFF002000BD4020A3
:101360005F4914310860FFF757FF0120F6E700B529
:1013700008211BE040225A4B14331A60FFF74CFF40
:1013800010F0800F04D08022554B10331A6003E018
:101390008022534B14331A604206100EFFF73CFFB5
:1013A00040224F4B10331A60FFF736FF0A00A1F1BD
:1013B0000103D9B2DED14022494B14331A6000BD7B
:1013C00000B5082100208022454B10331A6015E03B
:1013D0004206100E4022424B14331A60FFF71CFFE6
:1013E00040223F4B10331A60FFF716FF3C4A083289
:1013F000126812F0800F01D040F001000A00A1F144
:101400000103D9B2E4D14022354B14331A6000BD38
:1014100070B506460C461546FFF707FF08B90020D1
:1014200070BD3046FFF7A3FFFFF778FF18B9FFF74D
:1014300027FF0020F4E72046FFF799FFFFF76EFF34
:101440002846FFF794FFFFF769FFFFF719FFFFF743
:10145000E5FE0120E4E730B505460C46FFF7E5FE62
:1014600008B9002030BD2846FFF781FFFFF756FF7F
:1014700018B9FFF705FF0020F4E72046FFF777FFD4
:10148000FFF74CFFFFF7FCFEFFF7C8FE0120E9E77E
:1014900070B504460D46FFF7C8FE08B9002070BDC0
:1014A0002046FFF764FFFFF739FF18B9FFF7E8FEA2
:1014B0000020F4E72846FFF75AFFFFF72FFFFFF75A
:1014C000B4FE601CC0B2FFF752FFFFF727FFFFF723
:1014D00077FF0646FFF708FFFFF7D2FE3046DEE74C
:1014E000000C014010B500226B21D020FFF790FFC7
:1014F000C4B207221921D020FFF78AFF2044C4B2CA
:1015000003221A21D020FFF783FF2044C4B2102207
:101510001B21D020FFF77CFF2044C4B209221C21EC
:10152000D020FFF775FF2044C4B2204610BD10B58F
:101530003B21D020FFF7ACFFFE4908703C21D020B2
:10154000FFF7A6FFFB4948703D21D020FFF7A0FF21
:10155000F84988703E21D020FFF79AFFF549C870FE
:101560003F21D020FFF794FFF24908714021D0209D
:10157000FFF78EFFEF4948714321D020FFF788FF26
:10158000EC4908724421D020FFF782FFE9494872F4
:101590004521D020FFF77CFFE64988724621D02004
:1015A000FFF776FFE349C8724721D020FFF770FFAD
:1015B000E04908734821D020FFF76AFFDD494873EE
:1015C00010BD2DE9F05FFFF7B2FFDA484078D94946
:1015D000097840EA0120D8490988401A00B2D74961
:1015E0000880D448C078D349897840EA0120D2499C
:1015F0004988401A00B2D1494880CE484079CD4947
:10160000097940EA0120CC498988401A00B2CB49C7
:101610008880C848407AC749097A40EA012000B268
:10162000C7490880C348C07AC249897A40EA012084
:1016300000B2C3494880BF48407BBE49097B40EAAD
:10164000012000B2BE498880BE49B1F9000001F016
:1016500008FC0446BC4ABD4B01F08AFB82468B461F
:10166000B749B1F9000001F0FCFB0446B64AB74B9C
:1016700001F07EFB804652465B4601F073FB064656
:1016800001F044FCB2490860AE49B1F9020001F032
:10169000E8FB0446AC4AAD4B01F06AFB06460F4638
:1016A000A749B1F9020001F0DCFB0446A64AA74BAA
:1016B00001F05EFB804632463B4601F053FB82461A
:1016C00001F024FCA24948609E49B1F9040001F0F0
:1016D000C8FB06469C4A9D4B01F04AFB8046894662
:1016E0009749B1F9040001F0BCFB0646964A974BB6
:1016F00001F03EFB044642464B4601F033FB824676
:1017000001F004FC9249886092480078002850D18A
:1017100002219148FEF77BFE9048007868B90020CE
:1017200085490880488088808D4908608D49086017
:101730008D4908600120894908708048B0F900008F
:10174000874909680844864908607C48B0F9020066
:10175000844909680844834908607848B0F904005E
:10176000814909680844804908607C480078C82895
:101770001AD17B4800687949097890FBF1F000B2F2
:101780006D490880774800687449097890FBF1F04A
:1017900000B26949488000208880704908700120A3
:1017A0006C490870BDE8F09F6C480078401C6B499C
:1017B000087000BFF6E72DE9F0414FF4FA67002406
:1017C0000025002600205F4908804880888028E0A6
:1017D000FFF7ADFE5748407A5649097A40EA0120A2
:1017E00000B2574908805348C07A5249897A40EA82
:1017F000012000B2524948804E48407B4D49097B48
:1018000040EA012000B24E4988800846B0F9000045
:1018100004440846B0F9020005440846B0F9040043
:1018200006443800A7F10107D2D14FF4FA6094FBC7
:10183000F0F000B2434908804FF4FA6095FBF0F0F5
:1018400000B248804FF4FA6096FBF0F000B2888056
:10185000BDE8F0812DE9F04F87B0882000F0D5F980
:10186000AF2000F0D2F91C2000F0CFF93348B0F9D6
:101870000090C9F30725284600F0C7F96019C4B2E3
:1018800009F0FF05284600F0C0F96019C4B22B48E2
:10189000B0F902A0CAF30725284600F0B6F960198E
:1018A000C4B20AF0FF05284600F0AFF96019C4B2CF
:1018B0002248B0F904B0CBF30725284600F0A5F97B
:1018C0006019C4B20BF0FF05284600F09EF96019BC
:1018D000C4B21B48B0F9000006900698C0F3072573
:1018E000284600F092F96019C4B20698C5B228469D
:1018F00000F08BF96019C4B21148B0F902000590EC
:101900000598C0F30725284600F07FF96019C4B296
:101910000598C5B2284600F078F96019C4B20848A5
:10192000B0F9040004900498C0F30725284600F09D
:101930006CF91BE0CC000020560000203E00002087
:101940004400002050000020360C7ACAC573413F85
:10195000C00000202C000020001001403C000020AE
:101960003000002034000020380000206019C4B28C
:101970000498C5B2284600F048F96019C4B20026A0
:101980003512284600F041F96019C4B235462846A0
:1019900000F03BF96019C4B200273D12284600F060
:1019A00034F96019C4B23D46284600F02EF960199A
:1019B000C4B2B0464FEA2825284600F026F960193F
:1019C000C4B24546284600F020F96019C4B22E4939
:1019D00008682E4901F0F0F8009001F053FA00B2C7
:1019E00002900298C0F30725284600F00EF960190E
:1019F000C4B20298C5B2284600F007F96019C4B213
:101A000021494868214901F0D7F8009001F03AFADD
:101A100000B201900198C0F30725284600F0F5F8C0
:101A20006019C4B20198C5B2284600F0EEF86019FA
:101A3000C4B215498868164901F0BEF8009001F05B
:101A400021FA00B203900398C0F30725284600F05E
:101A5000DCF86019C4B20398C5B2284600F0D5F886
:101A60006019C4B2002000F0D0F8002000F0CDF8DA
:101A7000002000F0CAF8002000F0C7F8204600F06F
:101A8000C4F807B0BDE8F08F540100200000C84240
:101A9000000020414FF0E021096921F004014FF0DE
:101AA000E0221161C21700EB5272D210364B1A704D
:101AB000194609784FF47A725143344A11807047BD
:101AC0000146324A12884A434FF0E0235A6100220D
:101AD0009A6101221A6100BF4FF0E022106910F0F4
:101AE000010F02D010F4803FF6D000224FF0E02327
:101AF0001A619A6170470146234A12784A434FF0AF
:101B0000E0235A6100229A6101221A6100BF4FF05E
:101B1000E022106910F0010F02D010F4803FF6D0DF
:101B200000224FF0E0231A619A617047002106E01D
:101B3000002200E0521CB2F5FA7FFBD3491C81421F
:101B4000F6D370471248C06940F008001049C861D8
:101B50008020104908800020091D08800D4924318B
:101B600008804FF6FF700B492C3108805320091F65
:101B7000088001200749143108800648008840F099
:101B800001000449088070475C0000205E000020CE
:101B900000100240000C004000B585B0012144F265
:101BA0000400FEF73FFE4FF40070ADF8100018205F
:101BB0008DF8130003208DF8120004A9D248FEF717
:101BC00079FB4FF48060ADF8100004208DF813000D
:101BD00004A9CD48FEF76EFB4FF4E13000900020E1
:101BE000ADF80400ADF80600ADF80800ADF80C0043
:101BF0000C20ADF80A006946C448FFF746F80121F9
:101C0000C248FFF7CEF805B000BD10B50446214626
:101C1000BE48FFF736F900BFBC48008810F0800FBF
:101C2000FAD0204610BD70B504460D46E1B2B74863
:101C3000FFF727F900BFB548008810F0800FFAD0F1
:101C4000204670BDF0B503460D46164600272946CE
:101C50000A2E03D0002008702846F0BD33B930208A
:101C600001F8010B002008702846F6E7002B03DA84
:101C70002D2001F8010B5B4242F210720DE093FB44
:101C8000F2F404B937B104F1300001F8010B04FBA0
:101C9000123301270A2092FBF0F2002AEFDC002029
:101CA00008702846D9E70FB470B586B006460CA870
:101CB000019073E00B9800785C281CD10B98401CB5
:101CC0000B9000786E2809D072280FD10D21304674
:101CD000FFF7D7F80B98401C0B900BE00A21304619
:101CE000FFF7CFF80B98401C0B9003E00B98401CBB
:101CF0000B9000BF4BE00B980078252840D10B9843
:101D0000401C0B900078642818D0732833D10198B8
:101D100010C801900BE021783046FFF7B2F800BF01
:101D200040213046FFF71BF90028F9D0641C2078C9
:101D30000028F0D10B98401C0B9020E0019820C89F
:101D400001900A2202A92846FFF77CFF02AC0BE0B3
:101D500021783046FFF795F800BF40213046FFF765
:101D6000FEF80028F9D0641C20780028F0D10B98E8
:101D7000401C0B9003E00B98401C0B9000BF06E04A
:101D80000B9810F8011B0B903046FFF77AF800BF54
:101D900040213046FFF7E3F80028F9D00B9800788F
:101DA000002887D106B070BC5DF814FB00B585B083
:101DB00001212020FEF736FD01214804FEF73FFDFA
:101DC00001210846FEF72EFD01210820FEF745FB04
:101DD0002020ADF8100018208DF8130003208DF896
:101DE000120004A94A48FEF765FA4020ADF8100039
:101DF00004208DF8130004A94548FEF75BFA4FF460
:101E0000165000900020ADF80400ADF80600ADF8C3
:101E10000800ADF80C000C20ADF80A0069463D48FA
:101E2000FEF733FF012240F225513A48FEF7C5FF85
:101E300001213848FEF7B5FF05B000BD10B50446D6
:101E400021463448FFF71DF800BF3248008810F0E3
:101E5000800FFAD0204610BD00B585B001212020AA
:101E6000FEF7E0FC01218804FEF7E9FC01210846A9
:101E7000FEF7D8FC01212848FEF7EFFA4FF48070F6
:101E8000ADF8100018208DF8130003208DF8120013
:101E900004A91F48FEF70EFA4FF40070ADF81000C9
:101EA00004208DF8130004A91948FEF703FA4FF433
:101EB000E13000900020ADF80400ADF80600ADF868
:101EC0000800ADF80C000C20ADF80A006946134874
:101ED000FEF7DBFE012240F225511048FEF76DFFB0
:101EE00001210E48FEF75DFF05B000BD10B50446A8
:101EF00021460A48FEF7C5FF00BF0848008810F0D9
:101F0000800FFAD0204610BD000801400038014083
:101F1000001401400044004030001400004800401C
:101F200070B50546002405E0601CC4B2C82C01DD74
:101F3000002070BD02214E48FEF72EFE0028F3D08F
:101F400029464B48FEF7D5FD002405E0601CC4B2CD
:101F5000C82C01DD0020ECE701214548FEF71CFEFE
:101F60000028F3D04248FEF7C6FDC0B2E1E700B555
:101F700087B0012141F20D00FEF754FCA020ADF81E
:101F8000180003208DF81A0018208DF81B0006A9F0
:101F90003848FEF78FF94020ADF8180004208DF87E
:101FA0001B0006A93348FEF785F91020ADF818008C
:101FB00003208DF81A0010208DF81B0006A92D486B
:101FC000FEF778F94FF40060ADF8180003208DF8A3
:101FD0001A0010208DF81B0006A92648FEF76AF9A2
:101FE0000120ADF8180003208DF81A0048208DF864
:101FF0001B0006A92048FEF75DF90020ADF804009B
:102000004FF48270ADF806000020ADF80800ADF87E
:102010000A00ADF80C004FF40070ADF80E0010206F
:10202000ADF810000020ADF812000720ADF8140044
:1020300001A90F48FEF784FC01210D48FEF723FD9E
:10204000FF20FFF76DFF07B000BD10B5044608483C
:1020500000884FF6C7710840054908800846008887
:102060002043088001210248FEF70DFD10BD00004D
:102070000030014000080140000C014010B504216F
:10208000AA48FEF7C4F91021A948FEF7BEF9FFF7E8
:102090006EFF10BD2DE9F04107460D461646102192
:1020A000A348FEF7B4F93846FFF73AFF804600240C
:1020B00005E0FF20FFF734FF2855601CC4B2B4428E
:1020C000F7DB10219A48FEF7A0F94046BDE8F08101
:1020D0002DE9F04107460C46154610219448FEF7BD
:1020E00096F93846FFF71CFF8046002605E014F8F5
:1020F000010BFFF715FF701CC6B2AE42F7DB1021D3
:102100008B48FEF782F94046BDE8F0811CB589A1F5
:1021100003C9CDE900010820FFF797FF05226946B2
:102120003020FFF7D5FF052269461020FFF7B2FFE8
:10213000002406E01DF80400A52800D003E0601C80
:10214000C4B2052CF6DB00BF052C01D001201CBD5C
:102150000020FCE770B505460C4610217448FEF7D8
:1021600056F92846FFF7DCFE06462046FFF7D8FE64
:1021700010216F48FEF749F9304670BD70B504462E
:1021800010216B48FEF743F92046FFF7C9FEFF20F8
:10219000FFF7C6FE054610216548FEF736F92846CA
:1021A00070BD70B505461820FFF74FFF04215F484A
:1021B000FEF72DF920222946A020FFF789FF0421F0
:1021C0005A48FEF722F900BF01215C48FEF703F9E7
:1021D0000028F9D10720FFF7D1FF04462146272028
:1021E000FFF7B8FF14F0100F05D0FF21E120FFF733
:1021F000B1FF102070BD14F0200F01D02020F9E7AE
:10220000FF20F7E770B504461020FFF71EFF0720F8
:10221000FFF7B4FF054629462720FFF79BFF15F07F
:10222000400F0AD0202221466120FFF733FFFF2113
:10223000E220FFF78FFF002070BD0120FCE710B502
:10224000044604213948FEF7E2F805223C493020D3
:10225000FFF73EFF05223B492A20FFF739FF012106
:102260002120FFF777FF01212220FFF773FF1A21BA
:102270002420FFF76FFF28212520FFF76BFF0F2198
:102280002620FFF767FF012C08D120213120FFF71E
:1022900061FF0F212020FFF75DFF41E0022C08D1F4
:1022A00020213120FFF756FF0E212020FFF752FF9B
:1022B00036E0032C1AD1FF21E120FFF74BFFFF216D
:1022C000E220FFF747FF0F212020FFF743FF5020B8
:1022D000FFF726FE7320FFF723FE01213C20FFF7C6
:1022E00039FF07213D20FFF735FF19E00E2120209F
:1022F000FFF730FFFF21E120FFF72CFFFF21E22055
:10230000FFF728FF5020FFF70BFE7320FFF708FEB2
:1023100001213C20FFF71EFF07213D20FFF71AFF98
:1023200004210248FEF771F810BD000000100140C2
:1023300000080140A5A5A5A5A5000000000C0140CE
:1023400060000020650000202DE9F04700250026F0
:102350000027FE49B1F9000000F07AFDFC49097838
:1023600001EB4101FB4A42F82100F849B1F90200B2
:1023700000F06EFDF649097801EB4101F54A02EBE8
:1023800081014860F149B1F9040000F061FDF049B4
:10239000097801EB4101EF4A02EB810188600024DA
:1023A00033E0284600F054FD814604EB4400E94A3E
:1023B00052F82010484600F0A7FB804600F062FD6E
:1023C0000546304600F044FD814604EB4400E14AF6
:1023D00002EB80004168484600F096FB804600F022
:1023E00051FD0646384600F033FD814604EB4400BB
:1023F000D84A02EB80008168484600F085FB8046A1
:1024000000F040FD0746601CC4B20A2CC9DB0A205C
:1024100095FBF0F000B2D04908800A2096FBF0F05E
:1024200000B248800A2097FBF0F000B28880C848CC
:102430000078401CC6490870084600780A2801D177
:1024400000200870BDE8F0872DE9F05F04464FF0EA
:102450007F594FF07C51204600F0AEFB8246254666
:102460002E46BE48A0EB660635462946504600F08B
:10247000A3FB8346294600F09FFB8046494600F0B7
:1024800098FB0746294600F097FB05462846BDE81D
:10249000F09F10B504460021204600F053FD02D203
:1024A00084F0004010BD2046FCE70FB599B0AC4861
:1024B0000168006800F080FB1190AA480168A848F4
:1024C000006800F079FB1090A7480168A4480068F4
:1024D00000F072FB0F90A3480168006800F06CFBED
:1024E0000E90A24801689F48006800F065FB0D90BF
:1024F0009D480168006800F05FFB0C909B480168F4
:102500009948006800F058FB0B90984801680068F3
:1025100000F052FB0A901E991C9800F04DFB0890A9
:102520001F9900F049FB0021099000F00BFD01D13B
:102530001DB000BD1F99084600F03EFB08901E9993
:10254000084600F039FB06901C99084600F034FB61
:102550000590069900F0D8FA0790089900F0D4FA8F
:102560000990FFF771FF189018991C9800F024FB50
:102570001C9018991E9800F01FFB1E9018991F9828
:1025800000F01AFB1F900F990D9800F00FFB4FF011
:102590008041099000F010FB17900B99109800F003
:1025A000B3FA4FF08041099000F006FB16900E99A7
:1025B000119800F0FBFA08900C9900F0F7FA0990D6
:1025C0000A9900F0A1FA159016991F9800F0F4FAF4
:1025D000099015991E9800F0EFFA0890099900F0FB
:1025E000E5FA149015991C9800F0E6FA09901799ED
:1025F0001F9800F0E1FA0890099900F0D7FA1390BB
:1026000017991E9800F0D8FA099016991C9800F0B6
:10261000D3FA0890099900F0C9FA12905449149815
:1026200000F0CAFA099053480168099800F06CFA62
:10263000504908604E49139800F0BEFA09904E4880
:102640000168099800F060FA4B49086048491298FF
:1026500000F0B2FA099049480168099800F054FA6C
:10266000464908601E98FFF714FF079000F023FC0E
:10267000434A444BCDE9080100F034FC21D24FF02D
:102680007E511F9800F092FA0690FFF702FF079024
:1026900000F011FC3A4A3B4BCDE9080100F022FC66
:1026A0000FD23948149900F087FA0890199900F070
:1026B0002BFA09902F480168099800F025FA199023
:1026C00001E0199819901C98FFF7E3FE079000F0BD
:1026D000F2FB2B4A2B4BCDE9080100F003FC21D281
:1026E0004FF07E511F9800F061FA0690FFF7D1FE7F
:1026F000079000F0E0FB224A224BCDE9080100F0F0
:10270000F1FB0FD22048139900F056FA08901A995D
:1027100000F0FAF9099018480168099800F0F4F9F6
:102720001A9001E01A981A901C98FFF7B2FE0790D1
:1027300000F0C1FB124A134BCDE9080100F0D2FBB7
:102740003DD21E98FFF7A5FE07901FE03E00002037
:1027500088000020DC0000208A000020DF59375F5D
:102760006C00002070000020740000207800002021
:102770006F12033B7C0000208000002084000020BA
:10278000CDCCCCCCCCCCEC3F0000204000F093FB77
:10279000B74AB84BCDE9080100F0A4FB0FD2B64808
:1027A000129900F009FA08901B9900F0ADF9099010
:1027B000B2480168099800F0A7F91B9001E01B9846
:1027C0001B90AF481B99006800F0F6F90790AD48E0
:1027D0001A99006800F0F0F90590AB48006880F0A5
:1027E00000400390199900F0E7F90490059900F072
:1027F000DDF90690079900F0D9F9A449089000F096
:10280000DBF90990A2480168099800F07DF9A04918
:1028100008609B481A99006800F0CEF90790994823
:102820001B99006800F0C8F905909948016819984B
:1028300000F0C2F90490059900F066F90690079936
:1028400000F0B4F99149089000F0B6F909908E486B
:102850000168099800F058F98B49086088480168B8
:10286000199800F0A9F9079087481B99006800F0B3
:10287000A3F9059086481A99006800F09DF9049024
:10288000059900F093F90690079900F03DF97F490A
:10289000089000F091F909907A480168099800F0D1
:1028A00033F97849086008460168199800F084F9FE
:1028B000079075481A99006800F07EF905907448F1
:1028C0001B99006800F078F90490059900F01CF954
:1028D0000690079900F06AF96C49089000F06CF9CD
:1028E000099067480168099800F00EF9644908608A
:1028F0000E99119800F008F907900C9900F004F96E
:1029000008900A9900F000F90990FFF79DFD1890D2
:102910005F481899006800F04FF95D4908605A480F
:102920001899006800F048F9574908605548189907
:10293000006800F041F9534908605148189900684F
:1029400000F03AF94E4908604FF080400C9900F0D1
:1029500033F901904FF040400E9900F02DF90090AE
:10296000019900F023F94FF07E51029000F0CCF86D
:10297000039000F0A0FACDE906014FF080401099D5
:1029800000F01AF902904FF080400B9900F014F912
:102990000190029900F0B8F8039000F08CFACDE9AC
:1029A0000401DDE9062300F05DFFCDE9080100F038
:1029B000ADFA384908604FF080400F9900F0FCF8FC
:1029C00004904FF040400D9900F0F6F80390049900
:1029D00000F09AF8059000F06EFACDE9060100F0DB
:1029E000F1FCCDE9080100F091FA2A494860084657
:1029F0000068059000F05FFA274A284BCDE90601F0
:102A000000F0B6F9CDE9080100F080FA214908602C
:102A100008464068059000F04EFA1F4A1F4BCDE96A
:102A2000060100F0A5F9CDE9080100F06FFA194997
:102A3000486000BF7CE57CB51949B1F9040000F09D
:102A400007FA04461649B1F9020000F001FA0546FA
:102A50001349B1F9000000F0FBF90646114BCDE92E
:102A600000549A68596818683346FFF71EFD7CBD0C
:102A7000CDCCCCCCCCCCEC3F00002040840000205E
:102A80007800002074000020700000200AD7A33ACC
:102A90006C0000205401002031B3CF6394A94C4056
:102AA0008A000020C000002008B501210420FDF7A5
:102AB000B9FE4FF48070ADF8000003208DF80200DD
:102AC00018208DF8030069460D48FDF7F3FB06203A
:102AD000FDF7E3FE08BD10B54820FEF7DBFFFFF76A
:102AE000E3FFFFF7CBFAFFF711FB0120FFF7A7FB8E
:102AF00010BD10B5FFF70AFB0249C87010BD0000F9
:102B00000008014094000020F0B480EA0102D20FD6
:102B10004300B3EB410F02D20346084619464B006F
:102B200042D0C30DDDB2C1F3C7542C1B202C35DAC3
:102B3000C1F3160141F4000502B16D42C4F1200653
:102B400005FA06F125412844B3EBD05F23D0C2B18A
:102B5000012CA0EBC35009DCF0BC4FF0004202EAAC
:102B6000C35200F50000DBB200F020BA400000F1D3
:102B7000807000EBC350A0F1807040EAD170490032
:102B800009E0490841EAC071A0EBC35000F500001C
:102B9000400800EBC350F0BC00F0FFB951420123E4
:102BA00003EB4101801AF6E7F0BC704781F0004169
:102BB000AAE780F00040A7E780EA010210B502F022
:102BC0000042400026D04B0023D04FEA106101EBB9
:102BD0001361C0F35600C3F3560340F4000043F4FE
:102BE0000003A0FB0330A1F17F014FEA00401C0469
:102BF00001D000F1010050EA134001D44000491E09
:102C0000C3B20C0604EBD010401C4008802B02D04D
:102C100003E0002010BD20F00100002900DA0020B0
:102C2000104310BD2DE9FE4F074681EA0300C00F97
:102C30000E46019021F0004123F00044B81AA14152
:102C400005D23846314617461E460B46024623F04B
:102C50000040104304D13846314603B0BDE8F08F40
:102C6000350DC5F30A00C3F30A510290401A0090D3
:102C7000402868DAC3F3130040F4801B01989246A1
:102C800020B10023D2EB030A63EB0B0B00985946EB
:102C9000C0F14002504600F05FF980460C465046B5
:102CA0005946009A00F067F9C0197141EF1785EA9B
:102CB00011533B4340D0019A52B3009A012A11DCD0
:102CC0000022801A4FF0004361EB055103EA0553DF
:102CD0008018CDE9002341F580114246234600F0DB
:102CE0009FF9BAE72E050025401B61EB060140194C
:102CF00041F58012001852412818A6F5001343EB45
:102D0000020140EAD470294318EB0808644113E03B
:102D100064084FEA38084FF0000244EAC0744FEAF2
:102D20000553801A61EB0301801841F580114908B1
:102D30004FEA3000801859414246234603B0BDE8AF
:102D4000F04F00F060B90198012240000023D0EB61
:102D5000020263EBE07301984FEAE074381A66EB05
:102D60000401EBE783F000435CE781F0004159E7A1
:102D70002DE9FE4F81EA030421F0004504F00044F0
:102D800023F000414FF0000A009450EA050302D0FE
:102D900052EA010304D10020014603B0BDE8F08FE0
:102DA000C1F30A53C5F30A541C44A0FB02B3C5F394
:102DB000130545F4801CC1F3130141F480180CFB8A
:102DC000023300FB083EA4F2F334810A930A41EA7D
:102DD0008C5143EA88530194A1FB03474FEA9C2599
:102DE00005FB03734FEA982601FB06373D052605D0
:102DF00045EA1435BBEB06016EEB0503850E920E1A
:102E000045EA8C1542EA8812A5FB0206261E67EBEE
:102E100000070C0D44EA0334A41947EB1350C1F327
:102E200013064FF0000319464FEA033343EA1653E3
:102E300043EA0403019CE5FB0201A4F10C040294A3
:102E4000009C4FEA0632CDE900A400F0E9F8A4E7BF
:102E5000C10F80EAE0700844CA079623002100F001
:102E6000A5B80EB5C10F80EAE0700844CA0700217A
:102E700040F233438DE80E000A460B4600F0D0F8CE
:102E800003B000BD00F0004220F00040C10DC0F3CF
:102E9000160040F400007F2901DA002070479629CF
:102EA00003DCC1F19601C84001E096398840002A50
:102EB000F4D04042704700F0004230F000400DD0A6
:102EC000C10D01F5607142EA01510022C0F3160004
:102ED000520742EAD00240071143704700200146E2
:102EE0007047000030B5002904DB4FF00044404239
:102EF00064EB0101002B04DB4FF00044524264EB11
:102F000003038B4208BF824230BD000001F0004243
:102F100030B421F0004150EA010306D00B0DA3F5B7
:102F20006073C1F31301002B02DC30BC002070473A
:102F3000440F44EAC104C100A01830BC00EBC350E8
:102F400000F02BB8002801DBC0F10040002901DBB4
:102F5000C1F1004181427047202A04DB203A00FA87
:102F600002F1002070479140C2F1200320FA03F3E0
:102F7000194390407047202A06DBCB17203A41FACC
:102F800002F043EAE071704741FA02F3D040C2F127
:102F9000200291400843194670470029A8BF704796
:102FA000401C490008BF20F00100704710B4B0FA7F
:102FB00080FC00FA0CF050EA010404BF10BC70471A
:102FC00049B1CCF1200421FA04F411FA0CF118BF34
:102FD000012121430843A3EB0C01CB1D0106000A8C
:102FE000002BBEBF002010BC704700EBC350104444
:102FF0000029A4BF10BC7047401C490008BF20F046
:10300000010010BC704710B5002B08DA401C41F1DC
:10301000000192185B411A4301D120F0010010BD5C
:103020002DE9F04D92469B4611B1B1FA81F202E0D2
:10303000B0FA80F220329046FFF78EFF06460F4628
:1030400040EA0A0041EA0B0152465B46084303D1BD
:1030500030463946BDE8F08D194652EA010015D0D8
:10306000C8F14002504600F0C5F804460D465046EF
:1030700059464246FFF770FF084301D0012000E0A7
:103080000020044345EAE07526432F430A984FEA9F
:10309000D625A0EB08000A304FEA46534FF0000255
:1030A00045EA47554FEAD72402D500200146D1E72B
:1030B000010550196141DDE9084500196941BDE884
:1030C000F04DA0E72DE9F04D81EA030404F0004B38
:1030D00021F0004714464FF0000A23F0004150EA67
:1030E000070220D054EA01021DD0C1F30A5502465E
:1030F000C1F31300C7F30A56C7F3130340F480115A
:1031000043F48013A6EB0508101BD64608F2FD38E1
:1031100073EB010002D308F1010801E092185B4152
:10312000B8F1000F03DA00200146BDE8F08D002061
:103130004FF48015064607460EE0B2EB040C73EB25
:10314000010C04D3121B064363EB01032F436D08EC
:103150004FEA300092185B4150EA050CEDD152EA7B
:10316000030012D082EA040083EA0105284303D158
:1031700000224FF0004308E0101B8B4102D20122D5
:10318000002302E06FF0010253101AEB060047EB38
:10319000085110EB0A0041EB0B01BDE8F04DFFF7C1
:1031A00032BF70B521F0004303430CD0C1F30A5481
:1031B0000026D4EB060566EB0603D417AD1AA3412F
:1031C00002DB0020014670BD001C41EB025170BDC6
:1031D000064C074D06E0E06840F0010394E8070064
:1031E00098471034AC42F6D3FCF7A6FF203B00080A
:1031F000403B0008202A04DB203A21FA02F000219B
:10320000704721FA02F3D040C2F1200291400843F6
:10321000194670472DE9F04D00231A461B1A8A41C2
:1032200003DB00200146BDE8F08DC1F30A52C1F373
:10323000130141F480154FF0000BD10702D10018A3
:103240006D41521E0026044640F2FF11304601EB4C
:10325000620A37468046024600204FF48011FFF78D
:10326000C9FF80197941331847EB0102B4EB030C15
:1032700075EB020C04D3E41A65EB020506460F4613
:10328000241908F101006D4180463428E3DDB119AD
:1032900047EB0700091BA84103D24FF0FF3213464A
:1032A00001E0002213461BEB060047EB0A51BDE884
:1032B000F04DFFF7A8BE490050EAC12018BF042016
:1032C0004A0D18BF40F0010040F2FF72B2EB515FAF
:1032D00008BF40F00200012808BF052070472DE913
:1032E000F0414F1E00EBC7010446D1E9000115462D
:1032F0001E4637F006020DD02A463346FFF738FD4A
:103300007F1E04EBC703D3E90023FFF78BFC37F0E4
:103310000602F1D1022F25D0042F13D0062F18BF9B
:10332000BDE8F0812A463346FFF722FDD4E90A239F
:10333000FFF778FC2A463346FFF71AFDD4E9082345
:10334000FFF770FC2A463346FFF712FDD4E9062347
:10335000FFF768FC2A463346FFF70AFDD4E9042349
:10336000FFF760FC2A463346FFF702FDD4E902234B
:10337000FFF758FC2A463346FFF7FAFCD4E900234E
:10338000BDE8F041FFF74EBC024A00201107FFF7ED
:1033900008BF000001FDFFFF02E008C8121F08C1BE
:1033A000002AFAD170477047002001E001C1121FC6
:1033B000002AFBD1704700000149086070470000F7
:1033C000980000202DE9F04D904F21F0004A86B082
:1033D00005460C46BA4530DBAAEB070028430CD063
:1033E0008B48824501DC1CD1DDB106B02846BDE822
:1033F000F04D4FF00102FFF7D4BE864A864B2846B7
:10340000FFF7B6FC07460E46844A854B2846214600
:10341000FFF7AEFC06B03A463346BDE8F04DFFF785
:1034200001BC0120FFF7C8FF06B00022BDE8F04D47
:10343000134610461146FFF745BE7A48824542DAE8
:10344000BAF1795F0BDA2846FFF735FF042808BF89
:10345000FFF79AFF284606B02146BDE8F08D2A46C0
:103460000B461046FFF784FC834602466E480E4624
:103470000B4606217844FFF732FF5A463346FFF7E2
:1034800077FC804669488A465A4633460421784488
:10349000FFF725FF5A463346FFF76AFC00223B46FA
:1034A000FFF7C0FB02460B4640465146FFF70AFEB7
:1034B0002A462346FFF75CFC06B02A462346BDE8B1
:1034C000F04DFFF7AFBB284624F0004100223D46F7
:1034D0003B46FFF74AFC4FF0FF32FFF762FE06461D
:1034E000024653480F460B4606217844FFF7F7FE85
:1034F00032463B46FFF73CFCCDE900014D483246E1
:103500003B4604217844FFF7EAFE32463B46FFF78C
:103510002FFC00222B46FFF785FB834602913046A5
:10352000394600F05FFA804643480D46504517DCA7
:10353000DDE900015A46029BFFF7C4FD42462B46D7
:10354000FFF716FC42462B46FFF76CFB0122FFF704
:1035500028FE304A304BFFF705FC304A304B4CE038
:103560004FF0000A52460B464046FFF75BFBCDE9A1
:10357000031052462B4610461946FFF7F9FB324618
:103580003B46FFF7F2FBDDE90332FFF79BFD064602
:103590000F46DDE900015A46029BFFF793FD834683
:1035A0000091012230463946FFF7FBFD194A1A4BBC
:1035B000FFF7DBFB06460F46012240462946FFF790
:1035C000F0FD5A46009BFFF7D3FB32463B46FFF720
:1035D000C9FB07460E46012250462946FFF7E1FD8A
:1035E0000E4DDFF858802A464346FFF7BEFB3A46A9
:1035F0003346FFF7BAFB2A464346FFF7B6FB002CDB
:10360000D8BF81F0004106B0BDE8F08D0000F03F6A
:103610000000F07F075C143326A6913C182D44541B
:10362000FB21F93F0000E03FB8050000CE05000097
:1036300042050000580500003333EF3FFB21E93F0E
:103640002DE9F84F04460D4621F0004000917449E1
:10365000884213DB7349884201DC08D13CB1204623
:103660002946BDE8F84F4FF00102FFF79ABD6E48BA
:10367000002DCCBF6D496E49BDE8F88F6D49884279
:1036800011DA6D498842A8BF4FF0FF366DDA204647
:103690002946FFF710FE042808BFFFF775FE2046F5
:1036A0002946BDE8F88F6549DFF894A125F000456B
:1036B000884232DA6349884219DA002632464FF0EE
:1036C000804320462946FFF7ADFA07468846012287
:1036D00020462946FFF765FD00225346FFF742FBCF
:1036E0003A464346FFF7EEFC04460D463DE0012610
:1036F0000022534620462946FFF794FA074688469B
:103700000022534620462946FFF72CFB43463A4603
:10371000FFF7D8FC04460D4627E04B4988421BDAE8
:10372000DFF8288102260022434620462946FFF77B
:103730001FFB00225346FFF775FA82460F46002210
:10374000434620462946FFF70DFB52463B46FFF70E
:10375000B9FC04460D4608E0032622462B4600200D
:103760003B49FFF7AFFC04460D4622462B46104668
:103770001946FFF7FDFA8B46824602460B46FFF7D5
:10378000F7FA07460246334888460B460621784436
:10379000FFF7A5FD52465B46FFF7EAFA82462E4840
:1037A0008B463A46434605217844FFF798FD3A4652
:1037B0004346FFF7DDFA02460B46002E50465946B7
:1037C0000CDAFFF72FFA22462B46FFF7D1FA01B0A9
:1037D00022462B46BDE8F04FFFF7C7BAFFF722FAA3
:1037E00022462B46FFF7C4FA1C4A7A4402EBC60372
:1037F000D3E90023FFF7B6FA22462B46FFF7B2FAC9
:10380000174A7A4402EBC603D3E90023FFF7ADFA67
:10381000009A002AB8BF81F00041BDE8F88F00008F
:10382000000010440000F07F182D4454FB21F93FA4
:10383000FB21F9BF0000DC3F0000203E0000F33F09
:103840000000F03F0000E63F008003400000F83F2A
:103850000000F0BF5603000014030000B202000095
:103860007A0200002DE9F04D9446CCF1000423F0DB
:1038700000464CEA0404524F46EAD47498468A46FD
:1038800021F00042BC4206D8454240EA050442EA23
:10389000D474BC4204D9BDE8F04D6246FFF7C2B90A
:1038A000A8F14055A5F17F6555EA0C040BD0022420
:1038B00004EAA874434DDFF810E144EADA7452EAEE
:1038C000000B04D00CE0BDE8F04DFFF7B9BE002CB2
:1038D00014BF012CBDE8F08D022C30D0032C32D067
:1038E00056EA0C0B0AD0BE4220D1BA4209D126F0CA
:1038F000804622F080423346114617E000291ADB49
:1039000025E0DFF8C8B0FB44002C04BFDBE9000170
:10391000BDE8F08D012C02BFDBE9000181F0004120
:10392000BDE8F08D022C0AD0032C0CD0BA4212D183
:10393000BAF1000F0BDA23482549BDE8F08D28467F
:103940002449BDE8F08D28467146BDE8F08D1D483C
:103950002149BDE8F08D921B12153C2AC4BF1948BD
:103960001D490EDCB8F1000FBEBF12F13C0F002064
:10397000014606DB6246FFF7A5FB21F00041FFF799
:103980005FFE002C08BFBDE8F08D012C04BF81F064
:103990000041BDE8F08D114A114B022C07D0FFF712
:1039A000E1F92A46BDE8F04D0A4BFFF7DBB9FFF716
:1039B000D9F92A46BDE8F04D064BFFF7D6B900000D
:1039C0000000F07F182D4454FB2109C00E020000B6
:1039D000FB21F9BFFB210940FB21F93F075C1433B0
:1039E00026A6A13C2DE9F04106460F46FFF712FC42
:1039F0000D46040018BF0120284320F00040C0F10C
:103A00007F6010F1E0400FD5002E14BF0120002090
:103A1000384320F00040C0F17F6000F1E040002812
:103A2000A4BF0120FFF7C8FC20462946BDE8F0816D
:103A3000555555555555C53F7D6FEB0312D6D4BF2F
:103A40005544880E55C1C93F3B8F68B52882A4BF35
:103A500088B20175E0EF493F09F7FD0DE13D023FF6
:103A60004B2D8A1C273A03C0C88A599CE52A00407E
:103A700059018D1B6C06E6BF82922EB1C5B8B33FCB
:103A80004FBB610567ACDD3F182D4454FB21E93F76
:103A90009BF681D20B73EF3F182D4454FB21F93F65
:103AA000E2652F227F2B7A3C075C143326A6813CEB
:103AB000BDCBF07A8807703C075C143326A6913C96
:103AC000C4EB98999999C9BF711623FEC671BCBF02
:103AD0006D9A74AFF2B0B3BF9AFDDE522DDEADBF6A
:103AE0002F6C6A2C44B4A2BF0D5555555555D53F82
:103AF000FF8300922449C23F6E204CC5CD45B73F9D
:103B0000513DD0A0660DB13FEB0D76244B7BA93F14
:103B100011DA22E33AAD903F0000000000000000FF
:103B2000403B0008000000209C0000009833000883
:103B3000DC3B00089C000020D4040000A8330008EF
:103B40000000000000000102030401020304060754
:103B5000080902040608000000A24A040000000050
:103B6000000000000102030406070809000000002D
:103B70000000000000000000000000000000000045
:103B80000000000000000000000000000000000035
:103B90000000000000000000000000000000000025
:103BA000E1E2E3E4E5E1E2E3E4E500000000803F78
:103BB0000000000000000000000000000000000005
:103BC00000000000000000000000000000000000F5
:0C3BD000000000000000000000000000E9
:0400000508000131BD
:00000001FF
